:100000000C942A000C944F010C943C000C943C007E
:100010000C943C000C943C000C943C000C943C0070
:100020000C943C000C943C000C943C000C943C0060
:100030000C943C000C943C000C943C000C943C0050
:100040000C943C000C943C000C943C000C943C0040
:100050000C943C0011241FBECFE5D8E0DEBFCDBF1D
:1000600020E0A0E6B0E001C01D92A236B207E1F7A1
:100070000E9495020C9425060C9400008F929F928A
:10008000AF92BF92CF92DF92EF92FF920F931F93A6
:10009000CF93DF9362E084E40E943A01C82FD0E05E
:1000A00060E081E40E94DA01082F10E061E081E461
:1000B0000E94DA01E82EF12C62E081E40E94DA016C
:1000C000C82ED12C60E082E40E94DA01A82EB12C67
:1000D00061E082E40E94DA01882E912C62E082E4E1
:1000E0000E94DA0190E0219799F40130110591F412
:1000F000EA94EF2889F4CA94CD2881F4AA94AB2815
:1001000079F48A94892871F4019771F081E00DC027
:1001100081E00BC081E009C081E007C081E005C03B
:1001200081E003C081E001C080E0DF91CF911F91A9
:100130000F91FF90EF90DF90CF90BF90AF909F9086
:100140008F9008952F923F924F925F926F927F927D
:100150008F929F92AF92BF92CF92DF92EF92FF92D7
:100160000F931F93CF93DF9300D000D0CDB7DEB7AE
:1001700060E081E40E94E701282F30E03C832B837C
:1001800062E082E40E94E701E82EF12C60E070E476
:100190008CE995E40E94920460E081E40E94F401FD
:1001A000C82ED12C62E082E40E94F401A82EB12C6A
:1001B00008E813E121E042E461E081E40E940D02DD
:1001C000882E912C62E081E40E94E701682E712C58
:1001D00060E082E40E94E701482E512C60E070E468
:1001E0008CE995E40E94920462E081E40E94F401AB
:1001F000282E312C60E082E40E94F401282F30E0A8
:100200003A83298321E042E461E081E40E940D0207
:1002100090E02B813C81232BA9F0EF2899F0CD2889
:1002200089F0AB2879F0892869F0672859F04528CA
:1002300049F0232839F029813A81232B19F0892BA1
:1002400009F096CF81E00F900F900F900F90DF9103
:10025000CF911F910F91FF90EF90DF90CF90BF90C3
:10026000AF909F908F907F906F905F904F903F9056
:100270002F90089540E00E94A60290E0789425B760
:10028000236025BF2BB720642BBF009721F0019777
:1002900021F481E0089580E0089580E008951F92A0
:1002A0000F920FB60F9211240F931F932F933F932A
:1002B0004F935F936F937F938F939F93AF93BF936E
:1002C000EF93FF930E947C02882321F00E947C021E
:1002D000813089F561E081E40E94F40161E082E40B
:1002E0000E94F40162E082E40E94E70160E070E0B5
:1002F0008AE794E40E94920462E082E40E94F4019E
:1003000060E081E40E94F40108E813E121E042E4A6
:1003100061E081E40E940D0262E081E40E94E70155
:1003200060E082E40E94E70160E070E48CE995E41B
:100330000E94920412C00E947C02823071F462E03A
:1003400081E40E94E70160E082E40E94E70160E04E
:1003500070E48CE995E40E94920462E081E40E94DA
:10036000F40108E813E121E042E461E081E40E9445
:100370000D0260E082E40E94F40160E081E40E94EA
:10038000E70162E082E40E94E7010E949502FF918A
:10039000EF91BF91AF919F918F917F916F915F91FD
:1003A0004F913F912F911F910F910F900FBE0F9082
:1003B0001F90189541E00E94A60290E0009719F066
:1003C000019719F0089580E0089581E0089541E0D3
:1003D0000E94550390E0009719F0019719F00895D5
:1003E00080E0089581E0089540E00E94550390E088
:1003F000009719F0019719F0089580E0089581E0C1
:1004000008950E94520490E0009719F0019719F0A6
:10041000089580E0089581E00895CF92DF92EF92F1
:10042000FF920F931F93CF93DF93D82EC62EF42EF7
:10043000E22E80E00E947E0481E090E090936100D3
:1004400080936000C0E0D0E00FC06C2D8D2D0E9425
:1004500001026E2D8F2D0E94010260E070E088E4A1
:1004600093E40E949204219698013695279536953B
:10047000279536952795ABE7B4E10E941606969529
:100480008795C817D90708F36C2D8D2D0E94F401AC
:10049000C82FD0E06E2D8F2D0E94F40190E01092B5
:1004A000610010926000CD2B21F0892B21F480E0B7
:1004B00003C080E001C081E0DF91CF911F910F91D7
:1004C000FF90EF90DF90CF90089540E050E00E94C1
:1004D00004048091600090916100019739F080914F
:1004E0000000813029F0882329F0089582E00895E2
:1004F00080E0089581E0089560E081E40E94650253
:10050000882369F061E081E40E946502823049F04D
:1005100062E081E40E946502882329F0089580E06A
:10052000089581E0089582E008950E943E008130A0
:1005300039F00E94A200813031F481E090E008950A
:1005400081E090E0089580E090E008958234B9F170
:10055000843409F465C0813409F093C04130B1F4AA
:100560002AB381E090E0062E02C0880F991F0A94FA
:10057000E2F7822B8ABB8AB390E002C095958795FB
:100580006A95E2F780FF7FC081E0089541117DC048
:100590002AB381E090E0062E02C0880F991F0A94CA
:1005A000E2F7809582238ABB8AB390E002C09595DA
:1005B00087956A95E2F780FD6AC081E00895413031
:1005C000B1F427B381E090E0062E02C0880F991F96
:1005D0000A94E2F7822B87BB87B390E002C095951F
:1005E00087956A95E2F780FF54C081E00895411134
:1005F00052C027B381E090E0062E02C0880F991FF9
:100600000A94E2F78095822387BB87B390E002C00B
:10061000959587956A95E2F780FD3FC081E0089542
:100620004130B1F421B381E090E0062E02C0880F82
:10063000991F0A94E2F7822B81BB81B390E002C03C
:10064000959587956A95E2F780FF29C081E0089526
:10065000411127C021B381E090E0062E02C0880F2F
:10066000991F0A94E2F78095822381BB81B390E0C1
:1006700002C0959587956A95E2F780FD14C081E0E8
:10068000089580E0089580E0089580E0089580E076
:10069000089580E0089580E0089580E0089580E066
:1006A000089580E0089580E008958234B9F184349B
:1006B00009F465C0813409F093C04130B1F42BB323
:1006C00081E090E0062E02C0880F991F0A94E2F79D
:1006D000822B8BBB89B390E002C0959587956A9574
:1006E000E2F780FF7FC081E0089541117DC02BB308
:1006F00081E090E0062E02C0880F991F0A94E2F76D
:10070000809582238BBB89B390E002C09595879535
:100710006A95E2F780FD6AC081E008954130B1F446
:1007200028B381E090E0062E02C0880F991F0A943A
:10073000E2F7822B88BB86B390E002C0959587953F
:100740006A95E2F780FF54C081E00895411152C0DC
:1007500028B381E090E0062E02C0880F991F0A940A
:10076000E2F78095822388BB86B390E002C095951E
:1007700087956A95E2F780FD3FC081E0089541309A
:10078000B1F422B381E090E0062E02C0880F991FD9
:100790000A94E2F7822B82BB80B390E002C0959569
:1007A00087956A95E2F780FF29C081E0089541119D
:1007B00027C022B381E090E0062E02C0880F991F67
:1007C0000A94E2F78095822382BB80B390E002C056
:1007D000959587956A95E2F780FD14C081E00895AC
:1007E00080E0089580E0089580E0089580E0089515
:1007F00080E0089580E0089580E0089580E0089505
:1008000080E0089580E008958234E1F0843489F135
:10081000813409F045C079B381E090E09C01062E57
:1008200002C0220F331F0A94E2F7872F90E0822341
:10083000932302C0959587956A95E2F7FA01808324
:1008400081E0089576B381E090E09C01062E02C01D
:10085000220F331F0A94E2F7872F90E0822393231D
:1008600002C0959587956A95E2F7FA01808381E049
:10087000089576B381E090E09C01062E02C0220F1D
:10088000331F0A94E2F7872F90E08223932302C05C
:10089000959587956A95E2F7FA01808381E008953E
:1008A00080E00895823481F08434D1F0813421F5E0
:1008B0002BB381E090E002C0880F991F6A95E2F7A0
:1008C00082278BBB81E0089528B381E090E002C0CD
:1008D000880F991F6A95E2F7822788BB81E0089507
:1008E00022B381E090E002C0880F991F6A95E2F779
:1008F000822782BB81E0089580E0089513BE82BF05
:1009000008952FE632E143E85AE30E94A9052DEB52
:1009100037E346E859E30E94B7040E942905CB015A
:1009200001960895CF92DF92EF92FF926B017C01C6
:1009300080E00E947E04C701B6010E948104AC01E0
:1009400083B7816083BF20E030E008C008B600FEB6
:10095000FDCF98B7916098BF2F5F3F4F24173507A1
:10096000A8F313BEFF90EF90DF90CF9008950E9400
:10097000CB040C946F050E94680558F00E94610535
:1009800040F029F45F3F29F00C94580551110C9464
:10099000A3050C945E050E94800568F39923B1F3CA
:1009A000552391F3951B550BBB27AA276217730795
:1009B000840738F09F5F5F4F220F331F441FAA1F29
:1009C000A9F335D00E2E3AF0E0E832D091505040E5
:1009D000E695001CCAF72BD0FE2F29D0660F771F93
:1009E000881FBB1F261737074807AB07B0E809F079
:1009F000BB0B802DBF01FF2793585F4F3AF09E3FFE
:100A0000510578F00C9458050C94A3055F3FE4F36E
:100A1000983ED4F3869577956795B795F7959F5F40
:100A2000C9F7880F911D9695879597F90895E1E08C
:100A3000660F771F881FBB1F621773078407BA07EB
:100A400020F0621B730B840BBA0BEE1F88F7E09546
:100A500008950E94880588F09F5798F0B92F99272C
:100A6000B751B0F0E1F0660F771F881F991F1AF099
:100A7000BA95C9F714C0B13091F00E94A205B1E057
:100A800008950C94A205672F782F8827B85F39F056
:100A9000B93FCCF3869577956795B395D9F73EF432
:100AA00090958095709561957F4F8F4F9F4F0895DA
:100AB00097F99F6780E870E060E008959FEF80EC11
:100AC000089500240A9416161706180609060895B4
:100AD00000240A9412161306140605060895092E1A
:100AE0000394000C11F4882352F0BB0F40F4BF2B89
:100AF00011F460FF04C06F5F7F4F8F4F9F4F0895C9
:100B000057FD9058440F551F59F05F3F71F04795BE
:100B1000880F97FB991F61F09F3F79F087950895A3
:100B2000121613061406551FF2CF4695F1DF08C0C2
:100B3000161617061806991FF1CF869571056105DF
:100B400008940895E894BB2766277727CB0197F987
:100B500008950E94BC050C946F050E94610538F051
:100B60000E94680520F0952311F00C9458050C9410
:100B70005E0511240C94A3050E94800570F3959FD7
:100B8000C1F3950F50E0551F629FF001729FBB2784
:100B9000F00DB11D639FAA27F00DB11DAA1F649F20
:100BA0006627B00DA11D661F829F2227B00DA11DD3
:100BB000621F739FB00DA11D621F839FA00D611D59
:100BC000221F749F3327A00D611D231F849F600D7A
:100BD000211D822F762F6A2F11249F5750409AF0A3
:100BE000F1F088234AF0EE0FFF1FBB1F661F771F2F
:100BF000881F91505040A9F79E3F510580F00C94FA
:100C000058050C94A3055F3FE4F3983ED4F3869512
:100C100077956795B795F795E7959F5FC1F7FE2B99
:100C2000880F911D9695879597F90895A29FB00119
:100C3000B39FC001A39F700D811D1124911DB29F10
:0E0C4000700D811D1124911D0895F894FFCFB1
:00000001FF
